{"abi":[{"type":"constructor","inputs":[{"name":"entranceFee","type":"uint256","internalType":"uint256"},{"name":"interval","type":"uint256","internalType":"uint256"},{"name":"vrfCoordinator","type":"address","internalType":"address"},{"name":"gasLane","type":"bytes32","internalType":"bytes32"},{"name":"subscriptionId","type":"uint256","internalType":"uint256"},{"name":"callbackGasLimit","type":"uint32","internalType":"uint32"}],"stateMutability":"nonpayable"},{"type":"function","name":"acceptOwnership","inputs":[],"outputs":[],"stateMutability":"nonpayable"},{"type":"function","name":"enterRaffle","inputs":[],"outputs":[],"stateMutability":"payable"},{"type":"function","name":"getEntranceFee","inputs":[],"outputs":[{"name":"","type":"uint256","internalType":"uint256"}],"stateMutability":"view"},{"type":"function","name":"owner","inputs":[],"outputs":[{"name":"","type":"address","internalType":"address"}],"stateMutability":"view"},{"type":"function","name":"pickWinner","inputs":[],"outputs":[],"stateMutability":"nonpayable"},{"type":"function","name":"rawFulfillRandomWords","inputs":[{"name":"requestId","type":"uint256","internalType":"uint256"},{"name":"randomWords","type":"uint256[]","internalType":"uint256[]"}],"outputs":[],"stateMutability":"nonpayable"},{"type":"function","name":"s_vrfCoordinator","inputs":[],"outputs":[{"name":"","type":"address","internalType":"contract IVRFCoordinatorV2Plus"}],"stateMutability":"view"},{"type":"function","name":"setCoordinator","inputs":[{"name":"_vrfCoordinator","type":"address","internalType":"address"}],"outputs":[],"stateMutability":"nonpayable"},{"type":"function","name":"transferOwnership","inputs":[{"name":"to","type":"address","internalType":"address"}],"outputs":[],"stateMutability":"nonpayable"},{"type":"event","name":"CoordinatorSet","inputs":[{"name":"vrfCoordinator","type":"address","indexed":false,"internalType":"address"}],"anonymous":false},{"type":"event","name":"OwnershipTransferRequested","inputs":[{"name":"from","type":"address","indexed":true,"internalType":"address"},{"name":"to","type":"address","indexed":true,"internalType":"address"}],"anonymous":false},{"type":"event","name":"OwnershipTransferred","inputs":[{"name":"from","type":"address","indexed":true,"internalType":"address"},{"name":"to","type":"address","indexed":true,"internalType":"address"}],"anonymous":false},{"type":"event","name":"RaffleEntered","inputs":[{"name":"player","type":"address","indexed":true,"internalType":"address"}],"anonymous":false},{"type":"error","name":"OnlyCoordinatorCanFulfill","inputs":[{"name":"have","type":"address","internalType":"address"},{"name":"want","type":"address","internalType":"address"}]},{"type":"error","name":"OnlyOwnerOrCoordinator","inputs":[{"name":"have","type":"address","internalType":"address"},{"name":"owner","type":"address","internalType":"address"},{"name":"coordinator","type":"address","internalType":"address"}]},{"type":"error","name":"Raffle_SendMoreToEnterRaffle","inputs":[]},{"type":"error","name":"Raffle_TransferFailed","inputs":[]},{"type":"error","name":"ZeroAddress","inputs":[]}],"bytecode":{"object":"0x61012060405234801561001157600080fd5b50604051610ca1380380610ca1833981016040819052610030916101d0565b8333806000816100875760405162461bcd60e51b815260206004820152601860248201527f43616e6e6f7420736574206f776e657220746f207a65726f000000000000000060448201526064015b60405180910390fd5b600080546001600160a01b0319166001600160a01b03848116919091179091558116156100b7576100b781610127565b5050506001600160a01b0381166100e15760405163d92e233d60e01b815260040160405180910390fd5b600280546001600160a01b0319166001600160a01b039290921691909117905560809590955260a0939093524260045560c0525060e05263ffffffff1661010052610246565b336001600160a01b0382160361017f5760405162461bcd60e51b815260206004820152601760248201527f43616e6e6f74207472616e7366657220746f2073656c66000000000000000000604482015260640161007e565b600180546001600160a01b0319166001600160a01b0383811691821790925560008054604051929316917fed8889f560326eb138920d842192f0eb3dd22b4f139c87a2c57538e05bae12789190a350565b60008060008060008060c087890312156101e957600080fd5b86516020880151604089015191975095506001600160a01b038116811461020f57600080fd5b80945050606087015192506080870151915060a087015163ffffffff8116811461023857600080fd5b809150509295509295509295565b60805160a05160c05160e05161010051610a11610290600039600061035501526000610324015260006102fe015260006102b7015260008181609d01526102080152610a116000f3fe6080604052600436106100865760003560e01c806379ba50971161005957806379ba50971461010a5780638da5cb5b1461011f5780638ea98117146101515780639eccacf614610171578063f2fde38b1461019157600080fd5b806309bc33a71461008b5780631fe543e3146100cb5780632cfcc539146100ed5780635d495aea146100f5575b600080fd5b34801561009757600080fd5b506040517f000000000000000000000000000000000000000000000000000000000000000081526020015b60405180910390f35b3480156100d757600080fd5b506100eb6100e6366004610818565b6101b1565b005b6100eb610206565b34801561010157600080fd5b506100eb6102b5565b34801561011657600080fd5b506100eb610421565b34801561012b57600080fd5b506000546001600160a01b03165b6040516001600160a01b0390911681526020016100c2565b34801561015d57600080fd5b506100eb61016c366004610897565b6104cb565b34801561017d57600080fd5b50600254610139906001600160a01b031681565b34801561019d57600080fd5b506100eb6101ac366004610897565b6105bd565b6002546001600160a01b031633146101f65760025460405163073e64fd60e21b81523360048201526001600160a01b0390911660248201526044015b60405180910390fd5b6102018383836105d1565b505050565b7f000000000000000000000000000000000000000000000000000000000000000034111561024757604051633e48252960e01b815260040160405180910390fd5b6003805460018101825560009182527fc2575a0e9e593c00f959f8c92f12db2869c3395a3b0502d05e2516446f71f85b0180546001600160a01b0319163390811790915560405190917f634f3211e3a4e43fee5a21ad9f87ca153b300fc78b1c557a2057dbe9c63bcb4791a2565b7f0000000000000000000000000000000000000000000000000000000000000000600454426102e491906108c7565b10156102ef57600080fd5b60006040518060c001604052807f000000000000000000000000000000000000000000000000000000000000000081526020017f00000000000000000000000000000000000000000000000000000000000000008152602001600361ffff1681526020017f000000000000000000000000000000000000000000000000000000000000000063ffffffff168152602001600163ffffffff1681526020016103a66040518060200160405280600015158152506106a9565b9052600254604051634d8e1c2f60e11b81529192506000916001600160a01b0390911690639b1c385e906103de9085906004016108ee565b6020604051808303816000875af11580156103fd573d6000803e3d6000fd5b505050506040513d601f19601f82011682018060405250810190610201919061098a565b6001546001600160a01b031633146104745760405162461bcd60e51b815260206004820152601660248201527526bab9ba10313290383937b837b9b2b21037bbb732b960511b60448201526064016101ed565b60008054336001600160a01b0319808316821784556001805490911690556040516001600160a01b0390921692909183917f8be0079c531659141344cd1fd0a4f28419497f9722a3daafe3b4186f6b6457e091a350565b6000546001600160a01b031633148015906104f157506002546001600160a01b03163314155b1561054257336105096000546001600160a01b031690565b60025460405163061db9c160e01b81526001600160a01b03938416600482015291831660248301529190911660448201526064016101ed565b6001600160a01b0381166105695760405163d92e233d60e01b815260040160405180910390fd5b600280546001600160a01b0319166001600160a01b0383169081179091556040519081527fd1a6a14209a385a964d036e404cb5cfb71f4000cdb03c9366292430787261be69060200160405180910390a150565b6105c561071a565b6105ce8161076f565b50565b600354600090838383816105e7576105e76109a3565b905060200201356105f891906109b9565b905060006003828154811061060f5761060f6109a3565b6000918252602082200154600580546001600160a01b0319166001600160a01b039092169182179055604051909250829047908381818185875af1925050503d806000811461067a576040519150601f19603f3d011682016040523d82523d6000602084013e61067f565b606091505b50509050806106a15760405163ba31c4f360e01b815260040160405180910390fd5b505050505050565b60607f92fd13387c7fe7befbc38d303d6468778fb9731bc4583f17d92989c6fcfdeaaa826040516024016106e291511515815260200190565b60408051601f198184030181529190526020810180516001600160e01b03166001600160e01b03199093169290921790915292915050565b6000546001600160a01b0316331461076d5760405162461bcd60e51b815260206004820152601660248201527527b7363c9031b0b63630b1363290313c9037bbb732b960511b60448201526064016101ed565b565b336001600160a01b038216036107c75760405162461bcd60e51b815260206004820152601760248201527f43616e6e6f74207472616e7366657220746f2073656c6600000000000000000060448201526064016101ed565b600180546001600160a01b0319166001600160a01b0383811691821790925560008054604051929316917fed8889f560326eb138920d842192f0eb3dd22b4f139c87a2c57538e05bae12789190a350565b60008060006040848603121561082d57600080fd5b83359250602084013567ffffffffffffffff8082111561084c57600080fd5b818601915086601f83011261086057600080fd5b81358181111561086f57600080fd5b8760208260051b850101111561088457600080fd5b6020830194508093505050509250925092565b6000602082840312156108a957600080fd5b81356001600160a01b03811681146108c057600080fd5b9392505050565b818103818111156108e857634e487b7160e01b600052601160045260246000fd5b92915050565b6000602080835283518184015280840151604084015261ffff6040850151166060840152606084015163ffffffff80821660808601528060808701511660a0860152505060a084015160c08085015280518060e086015260005b818110156109655782810184015186820161010001528301610948565b506101009250600083828701015282601f19601f830116860101935050505092915050565b60006020828403121561099c57600080fd5b5051919050565b634e487b7160e01b600052603260045260246000fd5b6000826109d657634e487b7160e01b600052601260045260246000fd5b50069056fea2646970667358221220e04e66ee6b7522729259b3a3d41f3aa054ab44f1690f5c2ddab42ea195f83edc64736f6c63430008130033","linkReferences":{}},"methodIdentifiers":{"acceptOwnership()":"79ba5097","enterRaffle()":"2cfcc539","getEntranceFee()":"09bc33a7","owner()":"8da5cb5b","pickWinner()":"5d495aea","rawFulfillRandomWords(uint256,uint256[])":"1fe543e3","s_vrfCoordinator()":"9eccacf6","setCoordinator(address)":"8ea98117","transferOwnership(address)":"f2fde38b"},"id":8}