{"abi":[{"type":"constructor","inputs":[{"name":"entranceFee","type":"uint256","internalType":"uint256"}],"stateMutability":"nonpayable"},{"type":"function","name":"enterRaffle","inputs":[],"outputs":[],"stateMutability":"payable"},{"type":"function","name":"getEntranceFee","inputs":[],"outputs":[{"name":"","type":"uint256","internalType":"uint256"}],"stateMutability":"view"},{"type":"function","name":"pickWinner","inputs":[],"outputs":[],"stateMutability":"nonpayable"},{"type":"error","name":"Raffle_SendMoreToEnterRaffle","inputs":[]}],"bytecode":{"object":"0x60a060405234801561001057600080fd5b506040516101b73803806101b783398101604081905261002f91610037565b608052610050565b60006020828403121561004957600080fd5b5051919050565b6080516101476100706000396000818160480152609101526101476000f3fe6080604052600436106100345760003560e01c806309bc33a7146100395780632cfcc539146100795780635d495aea14610083575b600080fd5b34801561004557600080fd5b507f000000000000000000000000000000000000000000000000000000000000000060405190815260200160405180910390f35b61008161008f565b005b34801561008157600080fd5b7f00000000000000000000000000000000000000000000000000000000000000003411156100d057604051633e48252960e01b815260040160405180910390fd5b600080546001810182559080527f290decd9548b62a8d60345a988386fc84ba6bc95484008f6362f93160ef3e5630180546001600160a01b0319163317905556fea2646970667358221220ac9171cda402c2ebea09e43a42d3141f7b047f2145d0623a3be618973468668264736f6c63430008130033","linkReferences":{}},"methodIdentifiers":{"enterRaffle()":"2cfcc539","getEntranceFee()":"09bc33a7","pickWinner()":"5d495aea"},"id":0}