{"abi":[{"type":"function","name":"RELATIVE_BROADCAST_PATH","inputs":[],"outputs":[{"name":"","type":"string","internalType":"string"}],"stateMutability":"view"},{"type":"function","name":"vm","inputs":[],"outputs":[{"name":"","type":"Vm","internalType":"contract Vm"}],"stateMutability":"view"}],"bytecode":{"object":"0x61014861003a600b82828239805160001a60731461002d57634e487b7160e01b600052600060045260246000fd5b30600052607381538281f3fe73000000000000000000000000000000000000000030146080604052600436106100405760003560e01c80632aa1c696146100455780633a76846314610085575b600080fd5b61006f6040518060400160405280600b81526020016a0b8bd89c9bd85918d85cdd60aa1b81525081565b60405161007c91906100c4565b60405180910390f35b6100ac7f885cb69240a935d632d79c317109709ecfa91a80626ff3989d68f67f5b1dd12d81565b6040516001600160a01b03909116815260200161007c565b600060208083528351808285015260005b818110156100f1578581018301518582016040015282016100d5565b506000604082860101526040601f19601f830116850101925050509291505056fea264697066735822122017b5d6c12acdf3c4dea3ac5d7a023bd8cb73f388c2c990c65153faca0c06bff164736f6c63430008130033","linkReferences":{}},"methodIdentifiers":{"RELATIVE_BROADCAST_PATH()":"2aa1c696","vm()":"3a768463"},"id":25}